:020000040800F2
:100000009006002029020008490C00084F0900084A
:10001000450C0008E1020008411300080000000040
:10002000000000000000000000000000610F000858
:100030002108000800000000C50C0008511000084D
:10004000430200084302000843020008430200087C
:10005000430200084302000843020008430200086C
:10006000430200084302000843020008430200085C
:10007000430200084302000843020008430200084C
:10008000430200084302000843020008430200083C
:10009000E5020008E70200084302000843020008E6
:1000A000430200084302000843020008430200081C
:1000B0002911000843020008430200084302000817
:1000C00043020008430200084302000843020008FC
:1000D00043020008430200084302000843020008EC
:1000E00043020008430200084302000843020008DC
:1000F00043020008430200084302000843020008CC
:1001000043020008430200084302000843020008BB
:1001100043020008430200084302000843020008AB
:10012000430200084302000843020008430200089B
:10013000430200084302000843020008430200088B
:10014000E902000801030008430200084302000816
:10015000430200084302000843020008430200086B
:10016000430200084302000843020008430200085B
:10017000430200084302000843020008430200084B
:10018000430200084302000800F002F800F03CF8C7
:100190000AA090E8000C82448344AAF10107DA45E2
:1001A00001D100F031F8AFF2090EBAE80F0013F0F8
:1001B000010F18BFFB1A43F001031847E8130000B2
:1001C00008140000103A24BF78C878C1FAD8520742
:1001D00024BF30C830C144BF04680C6070470000C1
:1001E0000023002400250026103A28BF78C1FBD840
:1001F000520728BF30C148BF0B6070471FB501F0E0
:10020000CCF91FBD10B510BD00F032F81146FFF754
:10021000F5FF01F0B2F900F050F803B4FFF7F2FF78
:1002200003BC00F057F80000094880470948004720
:10023000FEE7FEE7FEE7FEE7FEE7FEE7FEE7FEE796
:10024000FEE7FEE704480549054A064B70470000F3
:10025000C1100008890100089000002090060020CD
:10026000900200209002002070477047704770474E
:10027000754600F02BF8AE4605006946534620F05F
:100280000700854618B020B5FFF7DCFFBDE8204029
:100290004FF000064FF000074FF000084FF0000B42
:1002A00021F00701AC46ACE8C009ACE8C009ACE8F5
:1002B000C009ACE8C0098D46704710B50446AFF3DD
:1002C00000802046BDE81040FFF7A7BF00487047F8
:1002D0002C00002001491820ABBEFEE726000200DA
:1002E00000BFFEE77047704710B50221034800F0D9
:1002F000E1F80221014800F005F810BD0068004057
:1003000070470000B1F5007F3AD00FDC202928D0DB
:1003100006DC01291CD004291DD0082940D11DE08C
:10032000402921D0B1F5807F3AD126E0B1F5004FC8
:1003300031D006DCB1F5806F25D0B1F5006F2FD13B
:1003400024E0B1F5803F12D0B1F5003F28D111E093
:10035000154A826025E00822C26022E01022C260B5
:100360001FE0082202611CE01022026119E008224D
:10037000426016E01022426013E00422426010E066
:10038000042242600DE0042242600AE00022826101
:100390000422426005E0002282610422426000E003
:1003A00000BF00BF704700000101010010B500212F
:1003B000837A012202FA03F13D4A126842F00102F7
:1003C0003B4B1A603A4A1C3212688A43384B1C3342
:1003D0001A60027BCAB9364A0C3212688A43344B1F
:1003E0000C331A604288C38842EA0343304A4032E1
:1003F000847A42F834300288838842EA03432C4AE4
:100400004032847A02EBC4025360027B012A19D184
:10041000274A0C3212680A43254B0C331A60428873
:10042000038842EA0343224A4032847A42F8343055
:10043000C288838842EA03431D4A4032847A02EB31
:10044000C4025360C27A3AB9194A121D12688A432B
:10045000174B1B1D1A6006E0154A121D12680A434D
:10046000134B1B1D1A60028932B9114A14321268EB
:100470008A430F4B14331A600289012A06D10C4AB1
:10048000143212680A430A4B14331A60427B012A61
:1004900006D1074A1C3212680A43054B1C331A6006
:1004A000034A126822F00102014B1A6010BD0000DD
:1004B0000066004070B504460D460026606928407D
:1004C000002871D0B5F5807F5CD010DC082D35D0C8
:1004D00006DC012D20D0022D24D0042D72D127E07E
:1004E000102D31D0202D35D0402D6BD138E0B5F511
:1004F000004F60D009DCB5F5007F49D0B5F5806FBD
:100500004CD0B5F5006F5DD14FE0B5F5803F2DD0F3
:10051000B5F5003F56D12FE0A0682D4900F077F9DE
:10052000064651E0E068032100F071F906464BE011
:10053000E068082100F06BF9064645E0E06810210C
:1005400000F065F906463FE02069032100F05FF9FD
:10055000064639E02069082100F059F9064633E0E3
:100560002069102100F053F906462DE0606808214B
:1005700000F04DF9064627E06068102100F047F9C9
:10058000064621E0A069012100F041F906461BE082
:10059000A069022100F03BF9064615E0A06904219C
:1005A00000F035F906460FE00FE0A069702100F079
:1005B0002EF9064608E06068042100F028F9064696
:1005C00002E0FFE7002600BF00E00026304670BDD5
:1005D0000101010030B5024600200023146824F018
:1005E00002041460146844F00104146000E05B1C11
:1005F000546804F001041CB94FF6FF74A342F6D10D
:10060000546804F001040CB900206CE08C79012CD2
:1006100004D1146844F08004146003E0146824F0EA
:1006200080041460CC79012C04D1146844F0400497
:10063000146003E0146824F0400414600C7A012C68
:1006400004D1146844F02004146003E0146824F01A
:10065000200414604C7A012C04D1146844F0100476
:10066000146003E0146824F0100414608C7A012CE8
:1006700004D1146844F00804146003E0146824F002
:1006800008041460CC7A012C04D1146844F00404EA
:10069000146003E0146824F0040414608C78A40748
:1006A000CD7844EA05640D7944EA05444D7944EA7D
:1006B00005540D886D1E2C43D461146824F0010488
:1006C0001460002300E05B1C546804F001041CB1BA
:1006D0004FF6FF74A342F6D1546804F001040CB144
:1006E000002000E0012030BD10B5024600209368D4
:1006F00003F08063B3F1806F00D110E0936803F0E2
:100700000063B3F1006F01D1012008E0936803F0AA
:100710008053B3F1805F01D1022000E0042004285F
:1007200074D002F5C07303EB00131B6803F00104DF
:1007300002F5C07303EB00131C600B7A7BB94B7A94
:100740000C8843EA445302F5C07404EB0014246897
:10075000234302F5C07404EB0014236010E00B7A0D
:100760004C6843EAC4034C7A234302F5C07404EB9B
:1007700000142468234302F5C07404EB00142360C2
:100780008B7A03F00F038B7202F5C07303EB001337
:100790005B6823F00F0402F5C07303EB00135C6089
:1007A00002F5C07303EB00135B688C7A234302F5F8
:1007B000C07404EB001463608B7B1C064B7B44EA23
:1007C00003440B7B44EA0323CC7A234302F5C07431
:1007D00004EB0014A3608B7C1C064B7C44EA0344AE
:1007E0000B7C44EA0323CC7B234302F5C07404EB67
:1007F0000014E36002F5C07303EB00131B6843F0C1
:10080000010402F5C07303EB00131C6010BD024627
:10081000002002EA01030BB1012000E00020704734
:100820007047002007E0002100E0491C42F21072EE
:100830009142FADB401C44F620629042F3DB7047A1
:1008400030B10749096841F48071054A116005E03B
:100850000349096821F48071014A11607047000062
:10086000003C0240014A107070470000003C02400A
:10087000F0B50A4600210023002400BF3DE0012519
:1008800005FA01F3156805EA03049C4234D10568B2
:100890004F000326BE40B543056015794E00B540B4
:1008A0000668354305601579012D02D01579022DB2
:1008B00016D185684F000326BE40B5438560557943
:1008C0004E00B540866835438560456801268E40F8
:1008D000B5434560456896798E40B6B2354345606C
:1008E000C5684F000326BE40B543C560D5794E00AC
:1008F000B540C6683543C560491C1029BFD3F0BD5B
:10090000F0B5002300244D07ED0E02FA05F3CE10DA
:1009100000F1200555F826504E07F70E0F26BE4071
:10092000B543CF1000F1200646F82750CE1000F155
:10093000200555F8265045EA0304CE1000F12005A5
:1009400045F82640F0BD418370470183704700BFE2
:10095000FEE71FB50E208DF80A0000208DF80B0071
:1009600001208DF80C000020ADF80000ADF8020069
:10097000ADF804004FF6FF70ADF806000120ADF8A9
:1009800008008DF80D006846FFF710FD1FBD000040
:100990000EB50320ADF8000000208DF802008DF8A0
:1009A000030007208DF8040004208DF805000020C6
:1009B0008DF806008DF807008DF808008DF8090005
:1009C0008DF80A0001208DF80B0069460248FFF7F8
:1009D00001FEFFF7BEFF0EBD006800401CB50121FF
:1009E000084600F071F90121022000F06DF90121A3
:1009F000042000F069F90121880600F075F9012151
:100A0000480600F071F90121080300F07DF9F0209B
:100A1000009002208DF8040000208DF806000120CF
:100A20008DF8070003208DF8050069465548FFF74B
:100A30001FFF052204215348FFF762FF05221146DC
:100A40005048FFF75DFF052206214E48FFF758FF8B
:100A5000052207214B48FFF753FF0C200090002090
:100A60008DF804008DF8070069464648FFF700FF3F
:100A70001020009000208DF804008DF807006946D2
:100A80004148FFF7F5FE4FF4F070009001208DF81B
:100A9000040000208DF806008DF807008DF8050091
:100AA00069463948FFF7E4FE0120009000208DF8E8
:100AB00004008DF8070069463448FFF7D9FE4FF46B
:100AC0008070009001208DF8040000208DF8060051
:100AD00001208DF8070003208DF8050069462B489A
:100AE000FFF7C6FE4FF40070009001208DF804005F
:100AF00000208DF806008DF8070003208DF8050012
:100B000069462248FFF7B4FE4FF4005000900220DF
:100B10008DF8040000208DF8060001208DF80700F4
:100B200003208DF8050069461848FFF7A1FE202034
:100B3000009002208DF8040000208DF806000120AE
:100B40008DF8070003208DF8050069460F48FFF770
:100B50008FFE09220D210D48FFF7D2FE0922052143
:100B60000A48FFF7CDFE40210748FFF7ECFE2021A1
:100B70000548FFF7EAFE4FF4C0710348FFF7E5FEB2
:100B80001CBD0000000002400008024000040240BA
:100B900000B585B04FF48270ADF802000020ADF8CA
:100BA00000004FF40060ADF804000220ADF806002C
:100BB0000120ADF808000020ADF80A003820ADF89B
:100BC0000C000020ADF80E006946064800F09EF9C2
:100BD0000121044800F0B8F90121024800F07CF935
:100BE00005B000BD003001401FB50121084600F0EE
:100BF0007BF8F920029040F28F10ADF8040000203D
:100C0000ADF80600ADF80C0001A94FF0804000F0EF
:100C100015FB01221146900700F006FB1C208DF801
:100C2000000001208DF8010003208DF80200012052
:100C30008DF80300684600F009F80121880700F0EC
:100C4000D6FA1FBD00BFFEE77047000070B5002157
:100C500000230F22C4781CB3174C246804F4E0640A
:100C6000C4F5E064C4F30721C1F10404E3B20A410E
:100C700044789C40E1B28478144021430C07210E53
:100C80000E4C05786155047804F01F050124AC4032
:100C900005786D11AD0005F1E025C5F8004109E0CA
:100CA000047804F01F050124AC40054D0678761148
:100CB00045F8264070BD00000CED00E000E400E0C7
:100CC00080E100E07047000029B1064A1268024343
:100CD000044B1A6004E0034A12688243014B1A6015
:100CE000704700003038024029B1064A12680243BA
:100CF000044B1A6004E0034A12688243014B1A60F5
:100D0000704700004038024029B1064A1268024389
:100D1000044B1A6004E0034A12688243014B1A60D4
:100D200070470000443802401448006840F0010059
:100D30001249086000201149083108600F48006816
:100D40000F4908400D4908600E48091D08600E480B
:100D50000A49843108600B481038091D08600748AB
:100D6000006820F4802005490860002003490C3108
:100D7000086002498C31086070470000003802406A
:100D8000FFFFF6EA103000240030002010B50146C5
:100D90000022002300204A11012A02D10A4C2368B4
:100DA00008E0022A03D1084C7034236802E0064CA4
:100DB0007434236801F01F02012494401C400CB1DC
:100DC000012000E0002010BD003802400146002054
:100DD000034A106820F0F0000843106070470000DC
:100DE000083802400021024A11701146087070470D
:100DF0000238024001460020034A106820F4E05007
:100E00000843106070470000083802400146002087
:100E1000034A106820F4604040EAC1001060704747
:100E20000838024001490866704700000000474248
:100E300070B5049C41EA82150126C6EB530645EACB
:100E40000645054345EA0465014E356070BD000066
:100E50000438024001460020034A106820F00300D5
:100E600008431060704700000838024038B5002081
:100E700000900024002500BF3120FFF787FF0546C2
:100E80000098401C00900098B0F5A04F01D0002DB4
:100E9000F2D03120FFF77AFF08B1012400E00024EE
:100EA000204638BD10B5044600BF0221094800F0B5
:100EB0001FF80028F9D02146064800F025F800BFA9
:100EC0000121044800F014F80028F9D0014800F08E
:100ED00018F810BD0030014021B1028842F04002F4
:100EE000028004E002884FF6BF731A400280704708
:100EF0000246002013890B400BB1012000E00020C6
:100F000070470146888970478181704710B500227B
:100F1000028802F441520B884C8823438C88234377
:100F2000CC8823430C8923434C8923438C89234356
:100F3000CC8923431A430280838B4FF2FF742340F2
:100F400083830B8A038210BD21B1828842F00402A0
:100F5000828004E082884FF6FB731A4082807047DB
:100F6000704700000CB500200190009034480068E4
:100F700040F480303249086000BF3148006800F416
:100F8000003000900198401C0190009818B9019819
:100F9000B0F5A04FF1D12A48006800F4003010B13C
:100FA0000120009001E0002000900098012846D127
:100FB00023484030006840F08050214940310860AB
:100FC0002048006840F440401E4908601C48083032
:100FD00000681B49083108600846006840F400407A
:100FE00008600846006840F4A05008601648091FD1
:100FF0000860081F006840F08070091F086000BF8B
:101000000F48006800F000700028F9D040F2057029
:101010000E4908600A480830006820F003000849BB
:10102000083108600846006840F00200086000BF10
:1010300003480830006800F00C000828F8D10CBD07
:10104000003802400070004019544007003C024044
:1010500070472DE9F84318254FF4A8764FF00208A1
:101060000727FFF761FE0120FFF7BCFEFFF7FEFE3A
:101070000446012C22D10020FFF7A8FE2003FFF731
:10108000C5FE4FF4A050FFF7B5FE0520FFF7EAFBC1
:101090000120FFF7D5FB434632462946A0050097BD
:1010A000FFF7C6FE0120FFF7BDFE00BF3920FFF7A6
:1010B0006DFE0028FAD00220FFF7CCFEBDE8F883D1
:1010C00010B51548006840F47000134908601348D3
:1010D000006840F001001149086000200F49083104
:1010E00008600E4800680E4908400C4908600D4829
:1010F000091D0860081F006820F48020091F08608F
:10110000002006490C310860FFF72CFF4FF000600B
:1011100001498039086010BD88ED00E000380240C8
:10112000FFFFF6FE103000242DE9F8430121880767
:1011300000F069F801283CD140F2D174651E661CAC
:1011400083274FF0840800F059F91D48008800906B
:101150001C4803881C4802881C480188284600F067
:10116000AFF800F0EFF816480088009018480388A0
:101170001848028818480188204600F0A1F800F0BD
:1011800099F90F4800880090144803881448028891
:1011900014480188304600F093F809480088401C44
:1011A0000749088008460088DF2801DDC020088044
:1011B00000BF0121880700F017F8BDE8F8830000A0
:1011C0002800002004000020020000200000002071
:1011D0000A00002008000020060000201000002067
:1011E0000E0000200C000020CA430282704721B18B
:1011F000028842F00102028004E002884FF6FE738A
:101200001A400280704730B50246002000230024B7
:10121000158A05EA0103958905EA010413B10CB1A9
:10122000012000E0002030BD1AB183890B43838187
:1012300002E083898B43838170470000002202888B
:10124000184B98420ED0184B98420BD0B0F1804FFB
:1012500008D0164B984205D0154B984202D0154B3A
:10126000984204D14FF68F731A404B881A43124BA1
:10127000984207D0114B984204D04FF6FF431A40D2
:101280000B891A4302804B68C3620B880385054BA8
:10129000984202D0044B984201D18B7A03860123F5
:1012A00083827047000001400004014000040040B8
:1012B00000080040000C00400010004000140040F6
:1012C0002DE9F04F87B004460D4616461F46DDF85F
:1012D00040804FF00009CB4601200690A2464FEA1D
:1012E000096040EA0A2040EACB10069908430290C0
:1012F00004208DF80C0000208DF80D0008208DF8DA
:101300000E00E8B28DF80F00290A8DF810108DF844
:101310001160310A8DF812108DF81370390A8DF8AA
:10132000141000218DF815108DF8168001A90348BE
:10133000FFF7DAF907B0BDE8F08F00000068004061
:1013400000BFFEE738B51E208DF8000000208DF8A4
:1013500001009DF801009DF8001040EA012420469C
:10136000FFF7A0FD4FF47A7000F000F922208DF80D
:10137000000000208DF801009DF801009DF800108C
:1013800040EA01242046FFF78DFD194908804FF4FB
:101390007A7000F0EBF826208DF8000000208DF820
:1013A00001009DF801009DF8001040EA012420464C
:1013B000FFF778FD0F4908804FF47A7000F0D6F8F7
:1013C00028208DF8000000208DF801009DF8010014
:1013D0009DF8001040EA01242046FFF763FD06490E
:1013E00008804FF47A7000F0C1F8012038BD000089
:1013F00006000020080000200A00002038B5122056
:101400008DF8000000208DF801009DF801009DF886
:10141000001040EA01242046FFF744FD4FF47A70A3
:1014200000F0A4F816208DF8000000208DF80100CF
:101430009DF801009DF8001040EA01242046FFF7C6
:1014400031FD194908804FF47A7000F08FF81A20A6
:101450008DF8000000208DF801009DF801009DF836
:10146000001040EA01242046FFF71CFD0F490880C8
:101470004FF47A7000F07AF81C208DF800000020FC
:101480008DF801009DF801009DF8001040EA01244C
:101490002046FFF707FD064908804FF47A7000F0F8
:1014A00065F8012038BD0000000000200200002087
:1014B0000400002038B528208DF8000000208DF8A9
:1014C00001009DF801009DF8001040EA012420462B
:1014D000FFF7E8FC4FF47A7000F048F82A208DF806
:1014E000000000208DF801009DF801009DF800101B
:1014F00040EA01242046FFF7D5FC194908804FF443
:101500007A7000F033F82C208DF8000000208DF860
:1015100001009DF801009DF8001040EA01242046DA
:10152000FFF7C0FC0F4908804FF47A7000F01EF8F6
:101530002C208DF8000000208DF801009DF801009E
:101540009DF8001040EA01242046FFF7ABFC064955
:1015500008804FF47A7000F009F8012038BD0000CF
:101560000C0000200E00002010000020002101E0EF
:101570004A1C11B28142FBDB7047FFF76AFDFFF79F
:101580002DFAFFF705FAFFF703FBFFF72DFBFFF737
:1015900048F900BF00BF00BFFEE74FF04070E1EE2A
:1015A000100A7047C4150008000000202C0000003D
:1015B000C4010008F01500082C000020640600009B
:1015C000E001000800000000000000000000000032
:1015D000000000000000000000000000000000000B
:1015E000000000000000000000000000C00000003B
:040000050800018965
:00000001FF
